:10000000681A00200D1700000917000009170000EA
:100010000917000009170000091700000000000080
:1000200000000000000000000000000009170000B0
:100030000917000000000000091700000917000060
:100040000917000009170000091700000917000030
:100050000917000009170000091700000917000020
:100060000917000009170000091700000917000010
:100070000917000009170000091700000917000000
:1000800009170000091700000917000009170000F0
:1000900009170000091700000917000009170000E0
:1000A00009170000091700000917000009170000D0
:1000B00009170000091700000917000009170000C0
:1000C00009170000091700000917000009170000B0
:1000D00009170000091700000917000009170000A0
:1000E0000917000009170000091700000917000090
:1000F0000917000009170000091700000917000080
:10010000091700000917000009170000091700006F
:10011000091700000917000009170000091700005F
:10012000091700000917000009170000091700004F
:10013000091700000917000009170000091700003F
:1001400009170000551C0000C51A0000091700001F
:10015000091700000917000009170000091700001F
:10016000091700000917000009170000091700000F
:1001700009170000091700000917000009170000FF
:1001800010B5054C237833B9044B13B10448AFF3D1
:1001900000800123237010BD94080020000000009F
:1001A000782D0000084B10B51BB108490848AFF383
:1001B00000800848036803B910BD074B002BFBD033
:1001C000BDE81040184700BF00000000980800205C
:1001D000782D0000782D00000000000086B0036834
:1001E00043F001034A4A5367EFF31083B3FA83F3F2
:1001F0005B09019372B6BFF35F8F0021454B197005
:10020000019B454991610121916223B1414B1970D4
:10021000BFF35F8F62B63E4A536913F0080FFBD0FD
:10022000EFF31083B3FA83F35B09029372B6BFF363
:100230005F8F0022374B1A70029A354B374999610C
:10024000C16859632AB10122324B1A70BFF35F8F24
:1002500062B62F4A536913F0080FFBD0EFF31083F7
:10026000B3FA83F35B09039372B6BFF35F8F002287
:10027000284B1A70039A264B2949996181681963A2
:100280002AB10122234B1A70BFF35F8F62B6204A56
:10029000536913F0080FFBD0EFF31083B3FA83F325
:1002A0005B09049372B6BFF35F8F0022194B1A707B
:1002B000049A174B1B499961016999632AB101227C
:1002C000144B1A70BFF35F8F62B6114A536913F073
:1002D000080FFBD0EFF31083B3FA83F35B090593A8
:1002E00072B6BFF35F8F00220A4B1A700599084A55
:1002F000094B9361436843F00103936229B10122E2
:10030000044B1A70BFF35F8F62B606B0704700BF30
:1003100000080E402C000020280000AA340000AA8B
:10032000300000AA380000AA244B9B6A13F0020F89
:1003300009D0224B9B6A13F0010F04D01F4B5B695D
:1003400013F0040F38D1002836D100B589B01C4B0A
:100350005B6913F0010F06D11A4B9847184A53698D
:1003600013F0010FFBD04FF4807301930122134B64
:100370001A641A46536913F0080FFBD00F4B9B6A9F
:1003800002228DF81C2023F4403343F00213029321
:100390004FF4B7630393002106914FF004130493C5
:1003A000059101A8084B9847044A536913F0040FBC
:1003B000FBD009B05DF804FB704700BF00080E4099
:1003C00000040F40CD030000DD01000082B0EFF318
:1003D0001083B3FA83F35B09019372B6BFF35F8FA7
:1003E0000022084B1A70019A074B08499961084985
:1003F00019622AB10122034B1A70BFF35F8F62B6F4
:1004000002B070472C00002000040F40200000AA1A
:100410000DA1050070B483B0EFF31083B3FA83F33A
:100420005B09019372B6BFF35F8F00220E4B1A7007
:10043000019E83000D4D55F82020012404FA01F19E
:100440001143203303F47F7343F02A43084A936532
:1004500045F8201026B1044B1C70BFF35F8F62B6C5
:1004600003B070BC704700BF2C00002020000E407D
:1004700000000E4070B483B0EFF31083B3FA83F33F
:100480005B09019372B6BFF35F8F00220E4B1A70A7
:10049000019E83000D4D55F82020012404FA01F13E
:1004A00022EA0101203303F47F7343F02A43084A10
:1004B000936545F8201026B1034B1C70BFF35F8F86
:1004C00062B603B070BC70472C00002020000E40C4
:1004D00000000E4030B583B00446EFF31083B3FA4A
:1004E00083F35B09019372B6BFF35F8F00220B4B5E
:1004F0001A70019D0A4B9B6A1BB905210120094B0B
:1005000098472DB10122054B1A70BFF35F8F62B679
:1005100021460220034B984703B030BD2C00002039
:1005200000000E401504000010B582B00146022004
:100530000F4B9847EFF31083B3FA83F35B090193F2
:1005400072B6BFF35F8F00220A4B1A70019C0A4BF0
:100550009B6A1BB905210120054B98472CB101224C
:10056000044B1A70BFF35F8F62B602B010BD00BFBC
:10057000750400002C00002000000E4030B583B050
:100580000446EFF31083B3FA83F35B09019372B669
:10059000BFF35F8F00220B4B1A70019D0A4BDB6A81
:1005A0001BB906210120094B98472DB10122054BAB
:1005B0001A70BFF35F8F62B621460320034B984742
:1005C00003B030BD2C00002000000E4015040000D8
:1005D00010B582B0014603200F4B9847EFF310830C
:1005E000B3FA83F35B09019372B6BFF35F8F002206
:1005F0000A4B1A70019C0A4BDB6A1BB906210120C9
:10060000054B98472CB10122044B1A70BFF35F8F42
:1006100062B602B010BD00BF750400002C000020BF
:1006200000000E40604B984200F0BA8060D8A3F5FD
:10063000A023984200F0B4802FD8A3F580339842CD
:1006400000F0AE8014D8A3F58033984200F0A88063
:1006500004D8B0F1402F40F0A180A1E0534B984264
:1006600000F09E8003F58043984240F0978097E029
:100670004F4B984200F0948005D8A3F570539842F0
:1006800040F08C808CE04B4B984200F0898003F561
:10069000F843984240F0828082E0474B98427FD0F6
:1006A00011D8A3F5803398427AD004D8A3F58043BB
:1006B000984273D174E0414B984271D003F5804366
:1006C00098426BD16CE03E4B984269D008D8A3F5B4
:1006D0000043984264D003F5804398425ED15FE0C6
:1006E000384B98425CD003F58043984256D157E08E
:1006F000354B984254D027D8A3F57C3398424FD03D
:1007000011D8A3F5043398424AD004D8A3F5804306
:10071000984243D144E02D4B984241D003F5806389
:1007200098423BD13CE02A4B984239D004D8A3F5FB
:100730000053984232D133E0264B984230D003F533
:10074000805398422AD12BE0234B984228D011D8CD
:10075000A3F57843984223D004D8A3F58063984248
:100760001CD11DE01D4B98421AD003F580639842BE
:1007700014D115E01A4B984212D008D8A3F50063A3
:1007800098420DD003F58063984207D108E0154BDD
:10079000984205D003F58063984201D0002070474D
:1007A0004FF03770704700BF0080074000000140E5
:1007B00000C0014000C4014000000440008003402C
:1007C0000080064000C0064000000E4000000A40C5
:1007D00000400A4000500A4000000F40000C0E404C
:1007E000000C0F4000100F4008B5B34B984200F0CA
:1007F0005A816AD8A3F5A023984200F013812FD81C
:10080000A3F58033984200F0F28014D8A3F580332A
:10081000984200F0D28004D8B0F1402F00F0C98097
:1008200008BDA64B984200F0CC8003F58043984267
:1008300000F0D28008BDA24B984200F0E08005D8BD
:10084000A3F57053984200F0D68008BD9D4B9842A6
:1008500000F0D98003F5F843984200F0D88008BD35
:10086000994B984200F0078115D8A3F58033984240
:1008700000F0EE8005D8A3F58043984200F0DD80BB
:1008800008BD924B984200F0EE8003F580439842F9
:1008900000F0ED8008BD8E4B984200F0F8800AD839
:1008A000A3F50043984200F0EA8003F580439842A4
:1008B00000F0E98008BD874B984200F0EC8003F51A
:1008C0008043984200F0EB8008BD834B984200F0D3
:1008D0004D8134D8A3F57C33984200F0278115D898
:1008E000A3F50433984200F00D8105D8A3F58043A9
:1008F000984200F0DC8008BD784B984200F00681F9
:1009000003F58063984200F0098108BD744B98425A
:1009100000F020810AD8A3F54053984200F00A81E4
:1009200003F50053984200F00D8108BD6D4B9842CD
:1009300000F0188103F52043984235D008BD6A4B7A
:10094000984200F02C8115D8A3F57843984200F026
:10095000178105D8A3F58063984200F00C8108BD8B
:10096000624B984200F0118103F58063984200F0D9
:10097000118108BD5E4B984200F020810AD8A3F592
:100980000063984200F0108103F58063984200F004
:10099000108108BD574B984200F0158103F5806324
:1009A000984200F0158108BD09210120524B98475B
:1009B00008BD0020514B984708BD01204F4B984778
:1009C00008BD02204D4B9847434B1A6C42F055022C
:1009D0004B4999651A6408BD0320484B98473E4B24
:1009E0001A6C42F05502464999651A6408BD042004
:1009F000424B984708BD0520404B984708BD06204C
:100A00003E4B984708BD07203C4B984708BD08203F
:100A10003A4B9847304B1A6C42F0040238499965BA
:100A20001A6408BD0920354B98472B4B1A6C42F0CD
:100A30000402334999651A6408BD0A202F4B984770
:100A4000254B1A6C42F004022D4999651A6408BDC1
:100A50000B202A4B9847204B1A6C42F0040228497D
:100A600099651A6408BD0C20244B984708BD0D20D9
:100A7000224B984708BD0E20204B984708BD0F20F9
:100A80001E4B984708BD10201C4B984708BD1120ED
:100A90001A4B984708BD1220184B984708BD1320E1
:100AA000164B984708BD1520144B984708BD1620D3
:100AB000124B984708BD00BF00800740000001406E
:100AC00000C0014000C40140000004400080034019
:100AD0000080064000C0064000000E4000000A40B2
:100AE00000500A4000600A4000000F40000C0E4019
:100AF000000C0F4000100F4015040000D50400004A
:100B0000400000AA1720354B984708BD0121084630
:100B1000334B98470020334B984708BD02210120F2
:100B20002F4B984701202F4B984708BD02202D4B93
:100B3000984708BD00210120294B98470320294BE5
:100B4000984708BD04210120254B98470420254BD8
:100B5000984708BD03210120214B98470520214BD0
:100B6000984708BD06201F4B984708BD0021042068
:100B70001B4B984708BD01210420194B984708BD1D
:100B800002210420164B984708BD03210420144B72
:100B9000984708BD04210846114B984708BD00211D
:100BA00005200F4B984708BD012105200C4B9847A5
:100BB00008BD022105200A4B984708BD03210520E6
:100BC000074B984708BD04210520054B984708BDF1
:100BD00005210846024B984708BD00BFD504000018
:100BE000150400007D05000008B5B44B984200F0E4
:100BF00030816AD8A3F5A023984200F0FE802FD858
:100C0000A3F58033984200F0E48014D8A3F5803334
:100C1000984200F0D28004D8B0F1402F00F0C98093
:100C200008BDA74B984200F0CC8003F58043984262
:100C300000F0CB8008BDA34B984200F0D28005D8CD
:100C4000A3F57053984200F0C88008BD9E4B9842AF
:100C500000F0CB8003F5F843984200F0CA8008BD4D
:100C60009A4B984200F0DD8015D8A3F58033984266
:100C700000F0CB8005D8A3F58043984200F0C180F6
:100C800008BD934B984200F0C48003F5804398421E
:100C900000F0C38008BD8F4B984200F0CE800AD888
:100CA000A3F50043984200F0C08003F580439842CA
:100CB00000F0BF8008BD884B984200F0C28003F569
:100CC0008043984200F0C18008BD844B984200F0F8
:100CD0001F8134D8A3F57C33984200F0D28015D818
:100CE000A3F50433984200F0BC8005D8A3F58043F7
:100CF000984200F0B28008BD794B984200F0B58070
:100D000003F58063984200F0B48008BD754B9842AB
:100D100000F0CB800AD8A3F54053984200F0B5808C
:100D200003F50053984200F0B88008BD6E4B98421E
:100D300000F0EA8003F52043984235D008BD6B4BA4
:100D4000984200F0FE8015D8A3F57843984200F051
:100D5000E98005D8A3F58063984200F0DE8008BDE5
:100D6000634B984200F0E38003F58063984200F003
:100D7000E38008BD5F4B984200F0F2800AD8A3F5EB
:100D80000063984200F0E28003F58063984200F02F
:100D9000E28008BD584B984200F0E78003F580637D
:100DA000984200F0E78008BD09210120534B984785
:100DB000E4E00020524B9847E0E00120504B984778
:100DC000DCE002204E4B9847D8E003204C4B98477C
:100DD000D4E004204A4B9847D0E00520484B984780
:100DE000CCE00620464B9847C8E00720444B984784
:100DF000C4E00820424B9847C0E00920404B984788
:100E0000BCE00A203E4B9847B8E00B203C4B98478B
:100E1000B4E00C203A4B9847B0E00D20384B98478F
:100E2000ACE00E20364B9847A8E00F20344B984793
:100E3000A4E01020324B9847A0E01120304B984797
:100E40009CE012202E4B984798E013202C4B98479B
:100E500094E015202A4B984790E01620284B98479D
:100E60008CE01720264B984788E00020254B9847B8
:100E700084E002210120214B98470120214B984713
:100E80007CE002201F4B984778E0002101201B4B9B
:100E9000984703201B4B984770E004210120174B13
:100EA00098470420174B984768E003210120134B13
:100EB00098470520134B984760E000BF008007402B
:100EC0000000014000C0014000C401400000044097
:100ED000008003400080064000C0064000000E4035
:100EE00000000A4000500A4000600A4000000F4025
:100EF000000C0E40000C0F4000100F407504000065
:100F000029050000D10500000620234B984735E055
:100F100000210420214B984730E0012104201F4B81
:100F200098472BE0022104201C4B984726E0032120
:100F300004201A4B984721E004210846174B984794
:100F40001CE000210520154B984717E001210520E2
:100F5000124B984712E002210520104B98470DE0F4
:100F6000032105200D4B984708E0042105200B4B79
:100F7000984703E005210846084B9847084B9A6AB2
:100F800040F60C731A4206D1054B1A6C22F07F0210
:100F9000044999651A6408BDD10500007504000074
:100FA00000000E40400000AA82B0EFF31083B3FAB5
:100FB00083F35B09019372B6BFF35F8F0022084B86
:100FC0001A70019A074B4FF02A41996518602AB1AF
:100FD0000122034B1A70BFF35F8F62B602B07047F5
:100FE0002C00002000000E4030B583B01C4C204681
:100FF0001C4B98470123A3602246D36813F0010FCE
:10100000FBD00020184B9847002211464FF0377054
:10101000164B98470320164B9847164A002116484E
:10102000164B9847144D164C2846A04710F0010F58
:10103000FAD0EFF31083B3FA83F35B09019372B62E
:10104000BFF35F8F00220F4B1A70019B2BB101225F
:101050000C4B1A70BFF35F8F62B603B030BD00BF98
:1010600000040A40E90700002903000025140000DD
:10107000A90F000080A9030000000F401D1300000D
:10108000911300002C000020002A39D02DE9F04FE8
:1010900083B00646174601F1FF38DFF870A0194DFE
:1010A000CDF800A0DFF868B0CDF804B0DFF86490A8
:1010B00018F8014F564505D121460098A847002849
:1010C000FAD117E05E4505D121460198A8470028CE
:1010D000FAD10FE04E4505D121464846A8470028E1
:1010E000FAD107E0084B9E4204D121460648A847A2
:1010F0000028FAD1013FDBD1002003B0BDE8F08F1A
:1011000000207047B115000000000340004002407D
:101110000080024000C00240002A42D02DE9F04F7A
:1011200085B005460F461646DFF884A01E4CCDF864
:1011300000A0DFF880B0CDF804B0DFF87C90002389
:101140000393554507D103A90098A0470028FAD179
:10115000039B3B7013E05D4507D103A90198A047AD
:101160000028FAD1039B3B7014E04D4507D103A939
:101170004846A0470028FAD1039B3B700AE00B4B7E
:101180009D4207D1984603A94046A0470028FAD1BE
:10119000039B3B700137013ED1D1002005B0BDE873
:1011A000F08F0020704700BFC5150000000003400D
:1011B000004002400080024000C0024090B92DE98A
:1011C000F0410C469046002A0FDD8F18084E094D5D
:1011D000306821462B6898470134A742F8D1404631
:1011E000BDE8F0814FF0FF3070470020BDE8F0818E
:1011F0003C0A0020340A00200138022815D82DE9C5
:10120000F0410E4614469AB10D46DFF838800C4F77
:10121000D8F8000015F8011B3B68984700280ADB46
:10122000A81B013CF4D1BDE8F0814FF0FF307047BE
:101230000020BDE8F0814FF0FF30BDE8F08100BF35
:10124000380A00203C0A002000B589B001A82C4BC8
:10125000984701AA2B4906A82B4B984706A82B4B69
:1012600098472B482B4B98472B4B80225A64C3F846
:1012700068215A654FF080729A64C3F864215A67F6
:10128000C3F88820C3F8C820C3F808219A619A627D
:101290009A634FF080629A67C3F88820C3F8C82029
:1012A000C3F808219A619A629A639A604FF00062CB
:1012B0009A67C3F88820C3F8C820C3F808219A6148
:1012C0009A629A639A60A3F5007301229A67C3F841
:1012D0008820C3F8C820C3F808215A619A629A632B
:1012E0009A6002229A67C3F88820C3F8C820C3F81E
:1012F00008215A619A629A639A6009B05DF804FB0A
:1013000019160000000C0F4031160000E116000015
:1013100000100E40E907000000140E402DE9F043D4
:1013200083B0C36923F0030343F00C03EFF310848D
:10133000B4FA84F46409019472B6BFF35F8F002598
:10134000104C2570019E104CD4F808802768D4F802
:10135000049062600522226001F0030119430B4BE7
:1013600098472560C4F80490C4F8088027602EB11F
:101370000122044B1A70BFF35F8F62B603B0BDE861
:10138000F08300BF2C00002010E000E001000020EE
:1013900040697047054B1B6823F04003002814BFC9
:1013A000402200221343014A1360704700000A40A4
:1013B000024B986800F00100704700BF00000A402F
:1013C00010B5024CA0470028FCD010BDB11300009E
:1013D00038B505460C46104B1B6898470F4B5B68A9
:1013E000002C08DB240224F07F4424F0FF0445F0A5
:1013F0002540044305E023F03F0343F0254345EA3D
:101400000304064B5C609B6803F00C03044A136002
:10141000014B1B68984738BD3000002000000A408F
:10142000B008002008B500292DD11D4B984214D9D1
:101430001C4B984208D801201B4B98474FF0FF31B6
:1014400011201A4B984708BD0120174B98474FF0C1
:10145000FF311020154B984708BD5AB1144B9842E4
:1014600008D80120104B98474FF0FF3111200F4B47
:10147000984708BD00200C4B98474FF0FF311120D2
:101480000A4B984708BD0B4B98428CBF01200020A7
:10149000054B98474FF0FF311120044B984708BD8A
:1014A00080A812010051250295130000D1130000FD
:1014B000001BB70000127A0010B40C0194420FD93F
:1014C0001AE0416841F400214160120402F4E02274
:1014D0001A43026200201CE001201AE0012018E0FB
:1014E000630803EBC202B2FBF4F2D3085C1E4FF6B2
:1014F000FE718C42E9D9EFE7C9004B0803EBC20249
:10150000B2FBF1F2D3085C1E4FF6FE718C42E5D8B7
:10151000D7E710BC704700BF0A4BC0F8E430002387
:1015200043604362836288230360242303604FF493
:10153000807303604FF4002303604FF400330360B3
:10154000704700BF0041535570B505460C4616461E
:101550000F4B984700220F4B1A609CB1324621680E
:1015600028460D4B9847024670B96168A368194335
:1015700023691943E3680B4306490B6069680B4311
:101580006B6002E0012200E00122104670BD00BF46
:1015900019150000B4080020B914000040230360AE
:1015A000704700BF10230360704700BF8160704721
:1015B000436913F0020F1DBFC1F30801C161002090
:1015C00001207047436913F0010F05D08369C3F30D
:1015D00008030B60002070470120704782B00D4B5C
:1015E0001B6813F4003F0CBF40F243334FF43763E2
:1015F0000193019BDB080193019B5A1E0192002B72
:10160000FAD140F0AA42034B1A6040F02A40186019
:1016100002B07047000C0F400023036043608360FA
:1016200010220273437301228273C27303747047E2
:1016300070B50C461646016042600846254B984737
:10164000256815F0080542D1236813F0010F08D072
:10165000206820F00100204B9847236813F0010F09
:10166000FBD1236813F4803F08D0206820F4803039
:10167000194B9847236813F4803FFBD13068736897
:101680001843B3681843337B1B0203F4F853184321
:10169000737B9B0403F4F8030343B27B002A0CBF63
:1016A000284680201843F37B002B18BF02252843CF
:1016B000094DA847206840F48030A847236813F4F8
:1016C000803FFBD02046054B9847012070BD00208D
:1016D00070BD00BFE9070000DD150000E90B000048
:1016E00010B50468206820F00100054B9847236876
:1016F00013F0010FFBD12046024B984710BD00BFED
:10170000DD150000E90B0000FEE700BF08B5194B2E
:10171000194A9A4203D0194B164A9A4204D3184BDD
:10172000184A9A420FD31AE01249174B5B1A23F05A
:1017300003030433104A134452F8040B41F8040B1A
:101740009A42F9D1EBE7114B114AD21A22F0030267
:101750001A44043B002143F8041B9342FBD10D4A79
:101760000D4B23F07F0393600C4B98470C4B98472D
:10177000FEE700BF00000020782D00009408002044
:10178000680A002094080020930800209808002090
:101790006B0A002000ED00E000000000E91C0000E2
:1017A000B51C0000094B1B6813B9094A074B1A60A6
:1017B000064B1B681A180749914204DB1046034A7E
:1017C0001060184670474FF0FF307047B80800208F
:1017D000681A0020FC7F00204FF0FF30704700BFE8
:1017E0004FF400534B600020704700BF002070474B
:1017F00008B5024B9847024B984708BD6519000091
:10180000251B000008B520210D480E4B98470E4BB4
:10181000187030B101460A480C4B984700220A4B19
:101820001A70202106480A4B98470A4B187030B1AD
:1018300001460348084B98470022064B1A7008BD22
:10184000400A00203D1A0000600A0020A91B000089
:10185000CD1B0000610A0020191A0000F0B583B00A
:1018600004460E46002301931A4B984209D11F46A5
:10187000194D01A93846A8470028FAD1019B3370B9
:1018800019E0164B984209D11D46134C01A9284670
:10189000A0470028FAD1019B337018E0104B984202
:1018A00009D11D460C4C01A92846A0470028FAD1B1
:1018B000019B33700BE00B4B9C4208D11D46064C3C
:1018C00001A92846A0470028FAD1019B337003B034
:1018D000F0BD00BF00400240C5150000008002407E
:1018E00000C002400000034070B50C46184B9842FF
:1018F00008D11E46174D21463046A8470028FAD188
:10190000012070BD144B984208D11E46114D21464E
:101910003046A8470028FAD1012070BD0F4B9842ED
:1019200008D11E460B4D21463046A8470028FAD163
:10193000012070BD0A4B984208D11E46054D214634
:101940003046A8470028FAD1012070BD002070BDA4
:1019500000400240B11500000080024000C002407B
:1019600000000340F0B587B01B4C1C4B1C601C4AA8
:101970001C4B1A601C4A1D4B1A601D4B1A680092C2
:101980005A6801929A680292DB68039300250495D5
:101990002046184B98472046174B98470246694601
:1019A0002046164B98472046154B98472046154B26
:1019B0009847154F3B6829469868144EB0473B68D6
:1019C00029465868B04701212046114B9847042208
:1019D000104B9A6007B0F0BD008002403C0A002026
:1019E000E9180000380A00205D180000340A0020C1
:1019F00034000020E907000025060000491500001A
:101A00009D150000A515000080040020D51D0000D4
:101A1000AD15000000E100E0F8B507460C46054EA4
:101A2000054D224639463046A8470028F9D12046C0
:101A3000F8BD00BF008002408910000070B41D4B4B
:101A40001A781D4B1B789A422EBFD31AA2F1640458
:101A5000E31A1A4C2370194B1B782BB39B2B07D915
:101A6000154B1A709C22154B1A709B2905D802E061
:101A7000994228BF194609B918E09C210E4B1B78E2
:101A80004C1EE4B2013404440D4D0026EA5C00F81B
:101A9000012B9B2B1ABF0133DBB233468442F5D1B5
:101AA000054A1370084602E0002000E0002070BCE8
:101AB000704700BF5C090020BC0800205D090020C1
:101AC000C008002000B583B001220DF107011048C5
:101AD000104B984772B6BFF35F8F00220E4B1A70FF
:101AE0000E4B1B789DF807100D4AD1549B2B03D148
:101AF00000220A4B1A7002E00133084A13700122D7
:101B0000054B1A70BFF35F8F62B603B05DF804FB3C
:101B100000800240191100002C0000205C09002008
:101B2000C008002010B586B0154B1A6800925A689C
:101B300001929A680292DB68039300230493114C8C
:101B40002046114B98472046104B9847024669465D
:101B500020460F4B984720460E4B984720460E4B89
:101B600098470E4B01215964C3F868115965204606
:101B70000B4B984702220B4B9A6006B010BD00BF7A
:101B80004400002000400240E90700002506000054
:101B9000491500009D150000A515000000140E4019
:101BA000AD15000000E100E0F8B507460C46054E13
:101BB000054D224639463046A8470028F9D120462F
:101BC000F8BD00BF004002408910000070B41D4BFA
:101BD0001A781D4B1B789A422EBFD31AA2F16404C7
:101BE000E31A1A4C2370194B1B782BB39B2B07D984
:101BF000154B1A709C22154B1A709B2905D802E0D0
:101C0000994228BF194609B918E09C210E4B1B7850
:101C10004C1EE4B2013404440D4D0026EA5C00F889
:101C2000012B9B2B1ABF0133DBB233468442F5D123
:101C3000054A1370084602E0002000E0002070BC56
:101C4000704700BFFC0900205E090020FD0900204C
:101C50006009002000B583B001220DF10701104892
:101C6000104B984772B6BFF35F8F00220E4B1A706D
:101C70000E4B1B789DF807100D4AD1549B2B03D1B6
:101C800000220A4B1A7002E00133084A1370012245
:101C9000054B1A70BFF35F8F62B603B05DF804FBAB
:101CA00000400240191100002C000020FC09002017
:101CB0006009002008B5074B9847074B9847012259
:101CC000064B1A70BFF35F8F62B6054B9847054C01
:101CD000A047FDE7E90F0000491200002C0000209A
:101CE000F11700000518000070B50F4E0F4D761B60
:101CF000B61018BF002405D0013455F8043B9847AE
:101D0000A642F9D10A4E0B4D761B01F023F8B6100E
:101D100018BF002406D0013455F8043B9847A6426A
:101D2000F9D170BD70BD00BF602D0000602D0000B6
:101D3000682D0000602D000070B4840746D0541E4A
:101D4000002A41D0CDB2034602E0621EE4B314463D
:101D500003F8015B9A07F8D1032C2ED9CDB245EADE
:101D600005250F2C45EA054519D903F11002264631
:101D7000103E0F2E42F8105C42F80C5C42F8085CF2
:101D800042F8045C02F11002F2D8A4F1100222F031
:101D90000F0204F00F041032032C13440DD91E4619
:101DA0002246043A032A46F8045BFAD8221F22F09E
:101DB00003020432134404F003042CB1C9B21C44DE
:101DC00003F8011BA342FBD170BC704714460346C5
:101DD000C2E700BF00290CBF022200224FF480633B
:101DE00000F000B82DE9F043514C256883B004465B
:101DF0000F4690461E4615B1AB6B002B79D0B8F15B
:101E0000020F04D0B8F1010F7FD8002E7DDB2146F0
:101E1000284600F043F9216B41B104F14003994297
:101E200002D0284600F03AFA00232363B4F90C30BC
:101E30000022A26162601A0654D423F44A6323F09C
:101E40000303B8F1020FA38139D001AB6A462146E2
:101E5000284600F035FBA3891843A08126B327B399
:101E6000AB6B002B4DD0009BB4F90C0027609E4259
:101E70001CBF40F40060A081B8F1010F08BF40F022
:101E8000010083B208BFA08103F0080080B227617F
:101E9000666118B313F001002FD000207642A661CE
:101EA000A06003B0BDE8F083009E304600F038FB30
:101EB000074668B3A38943F08003A381D0E70020DD
:101EC00004F1430243F0020300250121A381A56030
:101ED00022602261616103B0BDE8F083A06003B0BD
:101EE000BDE8F0832169284600F0D8F9B4F90C3038
:101EF000A3E7284600F066F981E7A66003B0BDE8D5
:101F0000F083284600F05EF9ADE74FF0FF30E2E7DE
:101F1000DDF80090B14506D0484600F001FB0746C9
:101F200008B14E46C6E7B4F90C304FF0FF30C7E7B2
:101F300080040020024B13B1024800F005B870473E
:101F400000000000D9210000002301461A4618466F
:101F500000F016BEB1F90C309AB22DE9F0410D46F1
:101F6000110780463CD46A6843F40063002AAB81C1
:101F700073DDAC6A002C4BD09BB203F4805200217D
:101F800092B2D8F80060C8F80010002A69D02A6D13
:101F90005F0705D569682B6B521A0BB1EB6BD21A30
:101FA0000023E9694046A047441C3CD0B5F90C30F9
:101FB0002A692A6023F400630022AB81DB046A6093
:101FC00049D4296BC8F8006011B305F14003994268
:101FD00002D0404600F062F900202863BDE8F0819D
:101FE0002E69AEB12C682E6090070CBF6B69002380
:101FF000A41BAB600AE0234632466F6AE96940469B
:10200000B8470028A4EB0004064404DD002CF2DCF1
:102010000020BDE8F081AB8943F04003AB814FF075
:10202000FF30BDE8F081D8F800201D2AF3D81A4B04
:10203000D34003F0010383F00104002BEBD0B5F98A
:102040000C302969296023F40063D9046C60AB81EA
:10205000B7D5002AB5D12865B3E7EA6B002A88DC3A
:10206000D6E70123E9694046A047431C024602D057
:10207000AB89AC6A8CE7D8F80030002BF8D01D2B68
:1020800001D0162B02D1C8F80060C1E7AB8943F03C
:102090004003AB81BDE8F0810100402010B504464B
:1020A00082B008B1836B53B1B1F90C0008B902B02A
:1020B00010BD204602B0BDE81040FFF74BBF0191B4
:1020C00000F080F80199EFE7014900F0CFB900BFB7
:1020D000492C00002DE9F04F354B4568C3630024BF
:1020E000074600F53B7204230321C0F8E412C0F850
:1020F000E822C0F8E04283B02C606C60AC606C6693
:10210000EC812C616C61AC61AB81214605F15C0016
:102110000822FFF711FEBE68DFF898B0DFF898A03C
:10212000DFF89890DFF89880C5F820B001230922E5
:10213000C5F824A0C5F82890C5F82C80ED6121468B
:10214000F381B28106F15C0034607460B46074663F
:1021500034617461B46108220193FFF7EDFDFD68FD
:10216000F66112200222C6F820B0C6F824A0C6F8F4
:102170002890C6F82C802146A881EA812C606C60EA
:10218000AC606C662C616C61AC6105F15C0008228E
:10219000FFF7D2FD019BED61C5F820B0C5F824A082
:1021A000C5F82890C5F82C80BB6303B0BDE8F08F5C
:1021B000C9200000CD2A0000F12A00002D2B0000CC
:1021C0004D2B0000836B03B17047FFF783BF00BF47
:1021D000704700BF704700BF38B5074D074C2C1B38
:1021E000A41005D0013C55F8043D9847002CF9D1C6
:1021F000BDE8384000F0B8BD782D0000742D000017
:10220000F8B5234F0C46064600F04AFCBB685D68F3
:1022100025F00305291B01F6EF7121F47F6121F000
:102220000F01A1F58054B4F5805F07DB0021304633
:1022300000F03AFCBB682B44984204D0304600F0D2
:1022400031FC0020F8BD6142304600F02DFC013029
:102250000DD0104BBA6819682D1B45F001053046AA
:10226000091B5560196000F01DFC0120F8BD00211C
:10227000304600F019FCBA68831A0F2BDEDD064CDD
:102280000449246843F00103001B53600860D5E74C
:10229000840400200C0A002090080020002945D06A
:1022A0002DE9F0410D46804600F0FAFB55F8047C1C
:1022B0006A4927F00103A5F10804E2188E68506806
:1022C000B24220F0030062D0FE0750600BD455F8F4
:1022D000087CE41B01F1080EA56875453B446FD0EE
:1022E000E768EF60BD6015186D68ED0742D543F0F3
:1022F00001026260E350B3F5007F18D2DB085A1C7C
:102300004D6851F83270A76001209B1000FA03F36A
:1023100001EBC2001D430838E0604D6041F83240D7
:10232000FC604046BDE8F04100F0BCBB70475A0A73
:10233000042A53D89A0902F139077F0002F13805BF
:1023400001EB870051F827204449083890424DD0CE
:10235000516821F003018B4202D292689042F7D17A
:10236000D068E060A2608460D4604046BDE8F0417F
:1023700000F098BB95683A4FBD4203443FD0D06807
:10238000E86043F0010285606260E350B3E7FF0755
:10239000034407D455F8082CA41A1344A068E26833
:1023A000C26090602F4A126843F00100934260605F
:1023B0008C60B6D32C4B40461968FFF721FFB0E77D
:1023C00011184968C90744D49168D268CA600344A7
:1023D00043F0010091606060E350A2E7142A17D82F
:1023E00002F15C077F0002F15B05A9E7AA104B68C8
:1023F000012505FA02F213434B600246B1E743F0B0
:1024000001024C610C61E560A5606260E35088E701
:10241000542A06D81A0B02F16F077F0002F16E05ED
:102420008EE7B2F5AA7F06D8DA0B02F178077F00B3
:1024300002F1770584E740F25450824206D89A0CA4
:1024400002F17D077F0002F17C0579E7FE277E25FA
:1024500076E743F001026260E35062E78404002003
:102460008C0400208C080020080A00202DE9F84385
:1024700010F538771FD0884606464FF000097D6872
:10248000BC68013D11D4A389012B05F1FF3508D9A2
:10249000B4F90E3001332146304602D0C04749EA34
:1024A00000096B1C04F16804EDD13F68002FE6D1F0
:1024B0004846BDE8F883B9464846BDE8F88300BF02
:1024C00070B50D46B1F90E10002990B014461E46A5
:1024D00014DB01AA00F0FAFB00280FDB029A02F4D9
:1024E0007042A2F50052B2FA82F252094FF48063B0
:1024F0004FF400603260236010B070BDA88900F016
:10250000800082B2002030601AB14023236010B0F6
:1025100070BD4FF480631046236010B070BD00BFE3
:10252000024B0146186800F003B800BF8004002089
:102530002DE9F04F01F10B05162D83B0064640F250
:102540009F8035F0070500F1BF80A94200F2BC80F2
:1025500000F0A6FAB5F5FC7FC0F09C826B0A00F093
:10256000BA80042B00F28381A80900F1390E4FEAEA
:102570004E033830C44F07EB8303A3F108015C68B6
:10258000A14207D1ACE0002A80F2AC80E468A1420D
:1025900000F0A680636823F003035A1B0F2AF2DDC4
:1025A000B9493C6901F1080E744500F0B3816368D4
:1025B00023F003035A1B0F2A00F39981002AC1F864
:1025C00014E0C1F810E080F29E80B3F5007F80F047
:1025D0006781DB0803F1010C01229B1002FA03F36F
:1025E0004A6851F83C80C4F8088001EBCC091A43D2
:1025F000A9F10803E3604A6041F83C40C8F80C4088
:10260000831001249C40944200F28A80144206D137
:1026100020F003006400144200F10400FAD007EB3C
:10262000C009CC468046DCF80C108C4507D173E11C
:10263000002A80F28181C9688C4500F06D814B6869
:1026400023F003035A1B0F2AF2DD0C46D1F80CC00D
:1026500054F8088F4B1945F001054D6042F0010117
:10266000C8F80CC03046CCF808807B613B61C3F8E9
:102670000CE0C3F808E059609A5000F013FA1FE02C
:10268000102921D800F00CFA1025062302207E4FD5
:1026900007EB8303A3F108025C68944200F04581D4
:1026A0006368E168A56823F00303234430465A6851
:1026B000E96042F001028D605A6000F0F3F90834DD
:1026C000204603B0BDE8F08F00240C232046336081
:1026D00003B0BDE8F08F80234FF0400E3F2049E764
:1026E00070465DE72344E1685A68A56842F001023C
:1026F000E96030468D605A6000F0D4F90834204615
:1027000003B0BDE8F08F234430465A6842F001021E
:102710005A6000F0C7F90834204603B0BDE8F08FD6
:10272000BC68636823F00308A84504D3C5EB08031D
:102730000F2B00F38C80554BDFF860911A68D9F8A5
:10274000003001332A4404EB080A00F0608102F5EE
:1027500080520F3222F47F6222F00F02114630467F
:10276000019200F0A1F9B0F1FF3F8346019A00F019
:102770005881824500F2FC80454B1968DA451144C6
:10278000196000F05381D9F80000DFF810E1013042
:102790001BBFCAEB0B0A5144CEF800B019601BF006
:1027A000070100F01781C1F10800C1F58051834491
:1027B00008315A44C2F30B02C2EB010949463046C4
:1027C000019300F071F9431C019B00F03F81CBEBBA
:1027D00000024A4442F001021968C7F808B04944AF
:1027E000BC42CBF804201960DFF8A49016D0B8F1F1
:1027F0000F0F40F2FD806268A8F10C0323F007037D
:10280000E01802F001024FF0050E1A430F2B626030
:10281000C0F804E0C0F808E000F21C811D4BBC6861
:102820001A68914288BF19601B4B1A68914262680E
:1028300088BF196022F003029542A2EB050301D87C
:102840000F2B04DC304600F02DF9002438E7621924
:1028500043F0010345F0010565603046BA605360FE
:1028600000F020F90834204603B0BDE8F08F142BA7
:1028700071D9542B00F2A480280B00F16F0E4FEA9F
:102880004E036E3076E600BF84040020080A002064
:102890000C0A0020040A0020000A002090080020F2
:1028A0005A0A042A5ED9142A00F2B38002F15C01AC
:1028B00049005B3207EB810C57F82110DFF8DC810F
:1028C000ACF1080C8C4500F088804A6822F00302C5
:1028D000934202D289688C45F7D1D1F80CC07A684E
:1028E000C4F80CC0A160CCF80840CC6088E663193D
:1028F00042F0010745F00105656030464B610B6110
:10290000C3F80CE0C3F808E05F609A50083400F0A8
:10291000C9F8D5E64A6873E608F1010818F0030F14
:102920000CF1080C7FF47FAE30E0DC68A34208BFF6
:1029300002303FF435AEB3E60B440C465A68C96822
:1029400054F8085F42F001025A603046E9608D6039
:1029500000F0A8F8B4E603F15C0E03F15B004FEA67
:102960004E0307E69A0902F1390149003832A1E71E
:10297000BC424A4B3FF400AF9C68626822F00302FD
:102980005AE759F80839994540F0828010F0030F52
:1029900000F1FF30F5D17B6823EA04037B6064001B
:1029A0009C423FF6BDAE002C3FF4BAAE1C424046FE
:1029B0007FF435AE64001C4200F10400FAD02EE62C
:1029C000B3F5AA7F18D8E80B00F1780E4FEA4E0352
:1029D0007730CFE54FF48051EBE60121D8F8043091
:1029E000921001FA02F21A43C8F80420614677E710
:1029F0000123CBF8043025E740F25452934220D80B
:102A0000A80C00F17D0E4FEA4E037C30B2E5103287
:102A1000A4E6542A26D81A0B02F16F0149006E323F
:102A200048E7BC68626822F0030205E7CAF30B00BE
:102A300000287FF4A8AE4244BB6842F001025A600D
:102A4000ECE6FE234FF07F0E7E2093E501224FF04F
:102A50000009C1E604F108013046FFF71FFCD9F870
:102A60000010DBE6B2F5AA7F05D8DA0B02F1780197
:102A7000490077321EE740F254518A4205D89A0C39
:102A800002F17D0149007C3214E7FE217E2211E72C
:102A90007B6884E7E808431C5B00F8E584040020B9
:102AA000704700BF704700BF38B5074C002305468C
:102AB00008462360FEF776FE431C00D038BD23682D
:102AC000002BFBD02B6038BD640A002010B50C46EB
:102AD000B1F90E1000F024F9002803DB236D034444
:102AE000236510BDA38923F48053A38110BD00BFCB
:102AF0002DE9F0411646B1F90C201F46D3050C46CE
:102B0000054607D500220223B1F90E1000F0F2F8B5
:102B1000B4F90C20B4F90E1022F48052A2813B4685
:102B200032462846BDE8F04100F014B810B50C4616
:102B3000B1F90E1000F0DEF8A389421C0EBF23F499
:102B4000805343F480532065A38110BDB1F90E106A
:102B500000F068B870B50D46084C114606461A4696
:102B6000284600232360FEF747FB431C00D070BDBE
:102B70002368002BFBD0336070BD00BF640A0020C7
:102B80002DE9F047254C2568D5F84841064688468A
:102B900092469946C4B360681F2817DC431C76B17F
:102BA00004EB80050122C5F888A0D4F88811824082
:102BB0001143022EC4F88811C5F808911ED00230C6
:102BC000636044F820800020BDE8F087144B03B315
:102BD0004FF4C870FFF7A4FC0446D0B1D5F84831D3
:102BE000002780E88800C5F8484138460123C4F82A
:102BF0008871C4F88C71002EE1D0D1E7D4F88C1123
:102C00000A43C4F88C21DAE705F5A674C5F84841F3
:102C1000C1E74FF0FF30BDE8F08700BF502D000046
:102C20002125000038B5074C0023054608462360DF
:102C3000FEF7D2FD431C00D038BD2368002BFBD02B
:102C40002B6038BD640A002000293DD070B50546D0
:102C50000C4608B1836B7BB3B4F90C300BB9002080
:102C600070BD21462846FFF775F9E36A064633B181
:102C7000E169284698470028B8BF4FF0FF36A3897E
:102C80001B061CD4216B41B104F14003994202D0D0
:102C90002846FFF703FB00232363616C21B128461C
:102CA000FFF7FCFA00236364FFF792FA0023A38185
:102CB000FFF790FA304670BDFFF784FACCE7216940
:102CC0002846FFF7EBFADDE70020704738B50B46E2
:102CD000074C05461146184600232360FEF780FD89
:102CE000431C00D038BD2368002BFBD02B6038BDBF
:102CF000640A002070B50D46084C114606461A4677
:102D0000284600232360FEF771FD431C00D070BDF0
:102D10002368002BFBD0336070BD00BF640A002025
:102D200070B50D46084C114606461A462846002343
:102D30002360FEF743FA431C00D070BD2368002BCC
:102D4000FBD0336070BD00BF640A00204300000068
:102D500058000020F8B500BFF8BC08BC9E4670477C
:102D6000351F0000A5010000F8B500BFF8BC08BC85
:082D70009E467047810100003E
:102D7800074A084B9A61C1611946074A48691368AE
:102D880003F4803310F0010001D1002BF6D0704716
:102D98001C0000AA00000F4010E000E00100000045
:102DA800C113000000C20100C000000000080000BC
:102DB8000000000000C20100C00000000008000080
:102DC8000000000000000000000000004403002094
:102DD800AC030020140400200000000000000000E4
:102DE80000000000000000000000000000000000DB
:102DF8000000000000000000000000004C2D000052
:102E080000000000000000000000000000000000BA
:102E180000000000000000000000000000000000AA
:102E2800000000000000000000000000000000009A
:102E3800000000000000000000000000000000008A
:102E4800000000000000000000000000000000007A
:102E5800000000000000000000000000000000006A
:102E6800000000000000000000000000000000005A
:102E780001000000000000000E33CDAB34126DE6F7
:102E8800ECDE05000B000000000000000000000060
:102E9800000000000000000000000000000000002A
:102EA800000000000000000000000000000000001A
:102EB800000000000000000000000000000000000A
:102EC80000000000000000000000000000000000FA
:1031F80058000020000000000000000084040020A7
:10320800840400208C0400208C04002094040020F6
:10321800940400209C0400209C040020A4040020A6
:10322800A4040020AC040020AC040020B404002056
:10323800B4040020BC040020BC040020C404002006
:10324800C4040020CC040020CC040020D4040020B6
:10325800D4040020DC040020DC040020E404002066
:10326800E4040020EC040020EC040020F404002016
:10327800F4040020FC040020FC04002004050020C5
:10328800040500200C0500200C0500201405002072
:10329800140500201C0500201C0500202405002022
:1032A800240500202C0500202C05002034050020D2
:1032B800340500203C0500203C0500204405002082
:1032C800440500204C0500204C0500205405002032
:1032D800540500205C0500205C05002064050020E2
:1032E800640500206C0500206C0500207405002092
:1032F800740500207C0500207C0500208405002042
:10330800840500208C0500208C05002094050020F1
:10331800940500209C0500209C050020A4050020A1
:10332800A4050020AC050020AC050020B405002051
:10333800B4050020BC050020BC050020C405002001
:10334800C4050020CC050020CC050020D4050020B1
:10335800D4050020DC050020DC050020E405002061
:10336800E4050020EC050020EC050020F405002011
:10337800F4050020FC050020FC05002004060020C0
:10338800040600200C0600200C060020140600206D
:10339800140600201C0600201C060020240600201D
:1033A800240600202C0600202C06002034060020CD
:1033B800340600203C0600203C060020440600207D
:1033C800440600204C0600204C060020540600202D
:1033D800540600205C0600205C06002064060020DD
:1033E800640600206C0600206C060020740600208D
:1033F800740600207C0600207C060020840600203D
:10340800840600208C0600208C06002094060020EC
:10341800940600209C0600209C060020A40600209C
:10342800A4060020AC060020AC060020B40600204C
:10343800B4060020BC060020BC060020C4060020FC
:10344800C4060020CC060020CC060020D4060020AC
:10345800D4060020DC060020DC060020E40600205C
:10346800E4060020EC060020EC060020F40600200C
:10347800F4060020FC060020FC06002004070020BB
:10348800040700200C0700200C0700201407002068
:10349800140700201C0700201C0700202407002018
:1034A800240700202C0700202C07002034070020C8
:1034B800340700203C0700203C0700204407002078
:1034C800440700204C0700204C0700205407002028
:1034D800540700205C0700205C07002064070020D8
:1034E800640700206C0700206C0700207407002088
:1034F800740700207C0700207C0700208407002038
:10350800840700208C0700208C07002094070020E7
:10351800940700209C0700209C070020A407002097
:10352800A4070020AC070020AC070020B407002047
:10353800B4070020BC070020BC070020C4070020F7
:10354800C4070020CC070020CC070020D4070020A7
:10355800D4070020DC070020DC070020E407002057
:10356800E4070020EC070020EC070020F407002007
:10357800F4070020FC070020FC07002004080020B6
:10358800040800200C0800200C0800201408002063
:10359800140800201C0800201C0800202408002013
:1035A800240800202C0800202C08002034080020C3
:1035B800340800203C0800203C0800204408002073
:1035C800440800204C0800204C0800205408002023
:1035D800540800205C0800205C08002064080020D3
:1035E800640800206C0800206C0800207408002083
:1035F800740800207C0800207C08002000000200DD
:04360800FFFFFFFFC2
:040000030000170DD5
:00000001FF
